{
  "_format": "hh-sol-artifact-1",
  "contractName": "Bank",
  "sourceName": "contracts/BankContract.sol",
  "abi": [
    {
      "inputs": [],
      "stateMutability": "nonpayable",
      "type": "constructor"
    },
    {
      "inputs": [],
      "name": "bankName",
      "outputs": [
        {
          "internalType": "string",
          "name": "",
          "type": "string"
        }
      ],
      "stateMutability": "view",
      "type": "function"
    },
    {
      "inputs": [],
      "name": "bankOwner",
      "outputs": [
        {
          "internalType": "address",
          "name": "",
          "type": "address"
        }
      ],
      "stateMutability": "view",
      "type": "function"
    },
    {
      "inputs": [
        {
          "internalType": "address",
          "name": "",
          "type": "address"
        }
      ],
      "name": "customerBalance",
      "outputs": [
        {
          "internalType": "uint256",
          "name": "",
          "type": "uint256"
        }
      ],
      "stateMutability": "view",
      "type": "function"
    },
    {
      "inputs": [],
      "name": "depositMoney",
      "outputs": [],
      "stateMutability": "payable",
      "type": "function"
    },
    {
      "inputs": [],
      "name": "getBankBalance",
      "outputs": [
        {
          "internalType": "uint256",
          "name": "",
          "type": "uint256"
        }
      ],
      "stateMutability": "view",
      "type": "function"
    },
    {
      "inputs": [],
      "name": "getCustomerBalance",
      "outputs": [
        {
          "internalType": "uint256",
          "name": "",
          "type": "uint256"
        }
      ],
      "stateMutability": "view",
      "type": "function"
    },
    {
      "inputs": [
        {
          "internalType": "string",
          "name": "_name",
          "type": "string"
        }
      ],
      "name": "setBankName",
      "outputs": [],
      "stateMutability": "nonpayable",
      "type": "function"
    },
    {
      "inputs": [
        {
          "internalType": "address payable",
          "name": "_to",
          "type": "address"
        },
        {
          "internalType": "uint256",
          "name": "_amount",
          "type": "uint256"
        }
      ],
      "name": "withdrawMoney",
      "outputs": [],
      "stateMutability": "nonpayable",
      "type": "function"
    }
  ],
  "bytecode": "0x608060405234801561001057600080fd5b50336000806101000a81548173ffffffffffffffffffffffffffffffffffffffff021916908373ffffffffffffffffffffffffffffffffffffffff160217905550610de9806100606000396000f3fe60806040526004361061007b5760003560e01c80637b83b50b1161004e5780637b83b50b1461011b578063a853409a14610146578063e147aaa714610171578063f274c8971461019c5761007b565b806316c05aa21461008057806327d358011461008a57806337ebe47b146100b557806370142690146100f2575b600080fd5b6100886101c5565b005b34801561009657600080fd5b5061009f610261565b6040516100ac91906108c2565b60405180910390f35b3480156100c157600080fd5b506100dc60048036038101906100d7919061071e565b6102ef565b6040516100e99190610964565b60405180910390f35b3480156100fe57600080fd5b5061011960048036038101906101149190610783565b610307565b005b34801561012757600080fd5b506101306103af565b60405161013d9190610964565b60405180910390f35b34801561015257600080fd5b5061015b610446565b6040516101689190610964565b60405180910390f35b34801561017d57600080fd5b5061018661048d565b60405161019391906108a7565b60405180910390f35b3480156101a857600080fd5b506101c360048036038101906101be9190610747565b6104b1565b005b6000341415610209576040517f08c379a000000000000000000000000000000000000000000000000000000000815260040161020090610944565b60405180910390fd5b34600260003373ffffffffffffffffffffffffffffffffffffffff1673ffffffffffffffffffffffffffffffffffffffff168152602001908152602001600020600082825461025891906109f1565b92505081905550565b6001805461026e90610b0b565b80601f016020809104026020016040519081016040528092919081815260200182805461029a90610b0b565b80156102e75780601f106102bc576101008083540402835291602001916102e7565b820191906000526020600020905b8154815290600101906020018083116102ca57829003601f168201915b505050505081565b60026020528060005260406000206000915090505481565b60008054906101000a900473ffffffffffffffffffffffffffffffffffffffff1673ffffffffffffffffffffffffffffffffffffffff163373ffffffffffffffffffffffffffffffffffffffff1614610395576040517f08c379a000000000000000000000000000000000000000000000000000000000815260040161038c906108e4565b60405180910390fd5b80600190805190602001906103ab9291906105d4565b5050565b60008060009054906101000a900473ffffffffffffffffffffffffffffffffffffffff1673ffffffffffffffffffffffffffffffffffffffff163373ffffffffffffffffffffffffffffffffffffffff1614610440576040517f08c379a000000000000000000000000000000000000000000000000000000000815260040161043790610924565b60405180910390fd5b47905090565b6000600260003373ffffffffffffffffffffffffffffffffffffffff1673ffffffffffffffffffffffffffffffffffffffff16815260200190815260200160002054905090565b60008054906101000a900473ffffffffffffffffffffffffffffffffffffffff1681565b600260003373ffffffffffffffffffffffffffffffffffffffff1673ffffffffffffffffffffffffffffffffffffffff16815260200190815260200160002054811115610533576040517f08c379a000000000000000000000000000000000000000000000000000000000815260040161052a90610904565b60405180910390fd5b80600260003373ffffffffffffffffffffffffffffffffffffffff1673ffffffffffffffffffffffffffffffffffffffff16815260200190815260200160002060008282546105829190610a47565b925050819055508173ffffffffffffffffffffffffffffffffffffffff166108fc829081150290604051600060405180830381858888f193505050501580156105cf573d6000803e3d6000fd5b505050565b8280546105e090610b0b565b90600052602060002090601f0160209004810192826106025760008555610649565b82601f1061061b57805160ff1916838001178555610649565b82800160010185558215610649579182015b8281111561064857825182559160200191906001019061062d565b5b509050610656919061065a565b5090565b5b8082111561067357600081600090555060010161065b565b5090565b600061068a610685846109a4565b61097f565b9050828152602081018484840111156106a257600080fd5b6106ad848285610ac9565b509392505050565b6000813590506106c481610d6e565b92915050565b6000813590506106d981610d85565b92915050565b600082601f8301126106f057600080fd5b8135610700848260208601610677565b91505092915050565b60008135905061071881610d9c565b92915050565b60006020828403121561073057600080fd5b600061073e848285016106b5565b91505092915050565b6000806040838503121561075a57600080fd5b6000610768858286016106ca565b925050602061077985828601610709565b9150509250929050565b60006020828403121561079557600080fd5b600082013567ffffffffffffffff8111156107af57600080fd5b6107bb848285016106df565b91505092915050565b6107cd81610a7b565b82525050565b60006107de826109d5565b6107e881856109e0565b93506107f8818560208601610ad8565b61080181610bfb565b840191505092915050565b6000610819602f836109e0565b915061082482610c0c565b604082019050919050565b600061083c6059836109e0565b915061084782610c5b565b606082019050919050565b600061085f602a836109e0565b915061086a82610cd0565b604082019050919050565b6000610882602b836109e0565b915061088d82610d1f565b604082019050919050565b6108a181610abf565b82525050565b60006020820190506108bc60008301846107c4565b92915050565b600060208201905081810360008301526108dc81846107d3565b905092915050565b600060208201905081810360008301526108fd8161080c565b9050919050565b6000602082019050818103600083015261091d8161082f565b9050919050565b6000602082019050818103600083015261093d81610852565b9050919050565b6000602082019050818103600083015261095d81610875565b9050919050565b60006020820190506109796000830184610898565b92915050565b600061098961099a565b90506109958282610b3d565b919050565b6000604051905090565b600067ffffffffffffffff8211156109bf576109be610bcc565b5b6109c882610bfb565b9050602081019050919050565b600081519050919050565b600082825260208201905092915050565b60006109fc82610abf565b9150610a0783610abf565b9250827fffffffffffffffffffffffffffffffffffffffffffffffffffffffffffffffff03821115610a3c57610a3b610b6e565b5b828201905092915050565b6000610a5282610abf565b9150610a5d83610abf565b925082821015610a7057610a6f610b6e565b5b828203905092915050565b6000610a8682610a9f565b9050919050565b6000610a9882610a9f565b9050919050565b600073ffffffffffffffffffffffffffffffffffffffff82169050919050565b6000819050919050565b82818337600083830152505050565b60005b83811015610af6578082015181840152602081019050610adb565b83811115610b05576000848401525b50505050565b60006002820490506001821680610b2357607f821691505b60208210811415610b3757610b36610b9d565b5b50919050565b610b4682610bfb565b810181811067ffffffffffffffff82111715610b6557610b64610bcc565b5b80604052505050565b7f4e487b7100000000000000000000000000000000000000000000000000000000600052601160045260246000fd5b7f4e487b7100000000000000000000000000000000000000000000000000000000600052602260045260246000fd5b7f4e487b7100000000000000000000000000000000000000000000000000000000600052604160045260246000fd5b6000601f19601f8301169050919050565b7f596f752073686f756c64206265207468652062616e6b206f776e657220746f2060008201527f6368616e676520746865206e616d650000000000000000000000000000000000602082015250565b7f596f752063616e2774207769746864726177207468617420616d6f756e74206f60008201527f66205765692c206861766520746f20626520657175616c206f72206c6573732060208201527f7468616e20796f7572206163636f756e742062616c616e636500000000000000604082015250565b7f596f75206e65656420746f20626520746865206f776e657220746f20646f207460008201527f68697320616374696f6e00000000000000000000000000000000000000000000602082015250565b7f596f752073686f756c64206465706f73697420616e20616d6f756e742067726560008201527f61746572207468616e2030000000000000000000000000000000000000000000602082015250565b610d7781610a7b565b8114610d8257600080fd5b50565b610d8e81610a8d565b8114610d9957600080fd5b50565b610da581610abf565b8114610db057600080fd5b5056fea2646970667358221220830d8b2ac92c35d4fc3879aebcfbca6b52b0a8336aaa2d310cf0e0b3b20baab964736f6c63430008040033",
  "linkReferences": {},
  "deployedLinkReferences": {}
}